:020000040800F2
:100000008809002029020008A1070008E10600086D
:100010009D0700084B040008F31B000800000000C7
:100020000000000000000000000000002D0B000890
:10003000E5040008000000003D080008450C000829
:10004000430200084302000843020008430200087C
:10005000430200084302000843020008430200086C
:10006000430200084302000843020008430200085C
:10007000430200084302000843020008430200084C
:10008000430200084302000843020008430200083C
:10009000430200084302000843020008430200082C
:1000A000430200084302000843020008430200081C
:1000B000430200084302000843020008430200080C
:1000C00043020008430200084302000843020008FC
:1000D00043020008D9150008430200084302000843
:1000E00043020008430200084302000843020008DC
:1000F00043020008C511000843020008430200083B
:1001000043020008430200084302000843020008BB
:10011000E9130008430200084302000843020008F4
:10012000430200084302000843020008430200089B
:10013000430200084302000843020008430200088B
:10014000430200084302000843020008430200087B
:10015000430200084302000843020008430200086B
:10016000430200084302000843020008430200085B
:10017000430200084302000843020008430200084B
:10018000430200084302000800F002F800F03CF8C7
:100190000AA090E8000C82448344AAF10107DA45E2
:1001A00001D100F031F8AFF2090EBAE80F0013F0F8
:1001B000010F18BFFB1A43F0010318472C3300004E
:1001C0004C330000103A24BF78C878C1FAD85207DF
:1001D00024BF30C830C144BF04680C6070470000C1
:1001E0000023002400250026103A28BF78C1FBD840
:1001F000520728BF30C148BF0B6070471FB503F0DE
:10020000D6F81FBD10B510BD00F044F81146FFF739
:10021000F5FF02F011FB00F062F803B4FFF7F2FF04
:1002200003BC00F063F80000094880470948004714
:10023000FEE7FEE7FEE7FEE7FEE7FEE7FEE7FEE796
:10024000FEE7FEE704480549054A064B70470000F3
:10025000490C000889010008880300208809002053
:10026000880500208805002070477047704710B54A
:1002700000F008F8006810BD10B5044600F002F860
:10028000046010BD004870472803002000487047F4
:10029000280300207546FFF7F9FFAE4605006946C2
:1002A000534620F00700854618B020B5FFF7CAFF77
:1002B000BDE820404FF000064FF000074FF0000867
:1002C0004FF0000B21F00701AC46ACE8C009ACE8E8
:1002D000C009ACE8C009ACE8C0098D4670470446C7
:1002E000AFF300802046FFF798FF00000149182077
:1002F000ABBEFEE7260002007047000010B52DEDF2
:10030000028B3E4890ED462BB0EE420AF0EE620AB8
:1003100090ED442BB0EE421AF0EE621A53EC102B23
:1003200051EC110B02F0E8FE41EC180B02F088FAD8
:10033000324AC032C2E91801304890ED481BB0EE95
:10034000410AF0EE610A9FED2E1B53EC112B51EC8C
:10035000100B02F08FFE12D2284890ED481BB0EE31
:10036000410AF0EE610A53EC102B9FED271B51EC74
:10037000110B02F0C1FE214AC032C2E918011F4828
:1003800090ED481BB0EE410AF0EE610A9FED201B94
:1003900053EC112B51EC100B02F032FD12D2174826
:1003A00090ED481BB0EE410AF0EE610A53EC102BC1
:1003B0009FED191B51EC110B02F09EFE0F4AC0324B
:1003C000C2E918010D4890ED481BB0EE410AF0EE6D
:1003D000610A9FED131B53EC112B51EC100B02F033
:1003E0004BFD064AC032C2E91801044890ED440BA7
:1003F00080ED460BBDEC028B10BD000050000020CC
:100400000000000000806640000000000080764090
:1004100000000000008066C000000000008076C080
:1004200017D9CEF753E3EF3F10B500F0BAF9A82083
:1004300002F004F901F066F801F01AFA01F07AFA14
:1004400000F0D2FE00F05CF910BD00BFFEE710B571
:10045000FFF754FF00F048F800F080F800F094FA3D
:1004600000F026FC00F022F910BD000070B519481C
:100470000068401C1749086008460068142809D124
:10048000002008601448006808B9012000E000203E
:10049000114908601149124802680A6042684A60BE
:1004A00080688860FF2001F0A1FAFE2001F09EFA2A
:1004B000FE25002408E00949085D01F097FA074885
:1004C000005D2844C5B2641C0C2CF4DB284601F006
:1004D0008DFA70BD3C000020BC0240420A0300209F
:1004E00050020020704700001748006800EE100A14
:1004F000B8EE400A154880ED040A47F23050124920
:100500000860124890ED040ADFED110A30EEC00ACF
:1005100080ED050A90ED050ADFED0E0A80EE201A47
:1005200090ED070A31EE000A80ED070AD0ED050ACA
:100530009FED081A80EE810ADFED070A80EE201A8F
:1005400080ED061A7047000024040040500000208F
:100550000060EA4600007A45D80FC9401748006895
:1005600000EE100AB8EE400A154880ED090A47F27D
:10057000305012490860124890ED090ADFED110A67
:1005800030EE600A80ED0A0A90ED0A0ADFED0E0AED
:1005900080EE201A90ED0C0A31EE000A80ED0C0A74
:1005A000D0ED0A0A9FED081A80EE810ADFED070AF6
:1005B00080EE201A80ED0B1A7047000024080040DE
:1005C000500000200060EA4600007A45D80FC9407C
:1005D000F0B50A4600210023002400BF3DE00125BC
:1005E00005FA01F3156805EA03049C4234D1056855
:1005F0004F000326BE40B543056015794E00B54057
:100600000668354305601579012D02D01579022D54
:1006100016D185684F000326BE40B54385605579E5
:100620004E00B540866835438560456801268E409A
:10063000B5434560456896798E40B6B2354345600E
:10064000C5684F000326BE40B543C560D5794E004E
:10065000B540C6683543C560491C1029BFD3F0BDFD
:10066000F0B5002300244D07ED0E02FA05F3CE107D
:1006700000F1200555F826504E07F70E0F26BE4014
:10068000B543CF1000F1200646F82750CE1000F1F8
:10069000200555F8265045EA0304CE1000F1200548
:1006A00045F82640F0BD4183704700000A4890EDB0
:1006B000800AD0ED0E0A9FED091A00EE810A80ED46
:1006C000800A90ED810AD0ED0F0A9FED041A00EE2A
:1006D000810A80ED810A7047500000200AD7233C30
:1006E0000BE00648006808B9012000E0002003493B
:1006F00008604FF4FA7001F0C7FFF2E7BC02404215
:100700001CB54FF40040009001208DF8040000203B
:100710008DF8060003208DF8050001208DF80700F4
:1007200069461B48FFF754FF4FF48070009001208A
:100730008DF8040000208DF8060003208DF80500D8
:1007400001208DF8070069461248FFF741FF01209C
:1007500000908DF8040000208DF8060003208DF82D
:10076000050001208DF8070069460B48FFF730FFB0
:1007700001210948FFF797FF4FF480710548FFF703
:1007800092FF4FF400410248FFF78DFF1CBD0000AF
:1007900000000240000C02400004024000BFFEE7DF
:1007A000704710B54FF4A06000F03EF810BD000097
:1007B00070B5002100230F22C4781CB3174C2468A5
:1007C00004F4E064C4F5E064C4F30721C1F1040457
:1007D000E3B20A4144789C40E1B28478144021435A
:1007E0000C07210E0E4C05786155047804F01F05A6
:1007F0000124AC4005786D11AD0005F1E025C5F888
:10080000004109E0047804F01F050124AC40054DC7
:100810000678761145F8264070BD00000CED00E02A
:1008200000E400E080E100E002490143024A116077
:10083000704700000000FA050CED00E07047000072
:1008400029B1064A12680243044B1A6004E0034AC5
:1008500012688243014B1A60704700003038024032
:1008600029B1064A12680243044B1A6004E0034AA5
:1008700012688243014B1A60704700004038024002
:1008800029B1064A12680243044B1A6004E0034A85
:1008900012688243014B1A607047000044380240DE
:1008A000F0B5002100220024022500260223324F49
:1008B0003F6807F00C0121B1042905D0082937D180
:1008C00005E02E4F076036E02D4F076033E02A4FDA
:1008D0003F1F3F68C7F38056274F3F1F3F6807F011
:1008E0003F036EB1264FB7FBF3F7DFF88CC0ACF1D6
:1008F000040CDCF800C0CCF3881C07FB0CF40CE003
:100900001E4FB7FBF3F7DFF870C0ACF1040CDCF856
:1009100000C0CCF3881C07FB0CF4174F3F1F3F6847
:10092000C7F301477F1C7D00B4FBF5F7076002E0C9
:10093000124F076000BF00BF0F4F3F6807F0F00184
:100940000909104F7A5C0768D74047600A4F3F6833
:1009500007F4E051890A0B4F7A5C4768D7408760FB
:10096000054F3F6807F46041490B064F7A5C4768C2
:10097000D740C760F0BD0000083802400024F400F2
:1009800000127A002C00002010B52DED088B5B487A
:1009900090ED481BB0EE410AF0EE610A9FED581B46
:1009A00053EC112B51EC100B02F066FA41EC1B0BCF
:1009B0009FED550B53EC102B02F05EFA41EC1A0B35
:1009C0009FED530B53EC102B02F02CF841EC190B5C
:1009D0009FED510B53EC102B02F024F841EC180B57
:1009E00001F03AFF4549C864084690ED130A80EDCE
:1009F000100A90ED060ADFED4A0A80EE201A80ED1B
:100A0000121AD0ED0B0A9FED461A80EE810AD0ED46
:100A1000130A9FED441A00EE810A80ED110A90ED51
:100A2000140AD0ED0B0A30EE200A80ED140A90ED86
:100A3000150AD0ED060A30EE200A80ED150A90ED79
:100A4000160A10EE101A084602F040FC41EC190B91
:100A50002A4890ED481BB0EE410AF0EE610A53ECD3
:100A6000102B51EC190B01F029FF41EC180B01F090
:100A7000F3FE22498865084690ED820A10EE101AAE
:100A8000084602F023FC41EC190B1C4890ED481B72
:100A9000B0EE410AF0EE610A53EC102B51EC190B49
:100AA00001F00CFF41EC180B01F0D6FE1349C1F820
:100AB0000802084690ED820ADFED1B0AB4EEE00A58
:100AC000F1EE10FA07DD90ED820ADFED170A30EE45
:100AD000600A80ED820A094890ED820AB5EEC00AEC
:100AE000F1EE10FA07D290ED820ADFED0F0A30EE38
:100AF000200A80ED820ABDEC088B10BD500000205A
:100B0000000000000000004000000000FB21094040
:100B1000000000000080764000000040E17A843F41
:100B20000AD7233CCBA1253E0000B4437047000008
:100B30000CB50020019000903448006840F48030EB
:100B40003249086000BF3148006800F4003000906E
:100B50000198401C0190009818B90198B0F5A04F79
:100B6000F1D12A48006800F4003010B10120009053
:100B700001E0002000900098012846D12348403031
:100B8000006840F0805021494031086020480068EA
:100B900040F440401E4908601C48083000681B496A
:100BA000083108600846006840F4004008600846C4
:100BB000006840F4A05008601648091F0860081F2C
:100BC000006840F08070091F086000BF0F4800688F
:100BD00000F000700028F9D040F205700E4908605E
:100BE0000A480830006820F003000849083108600E
:100BF0000846006840F00200086000BF0348083063
:100C0000006800F00C000828F8D10CBD0038024044
:100C10000070004008544007003C0240042808D1FE
:100C20004FF0E021096941F004014FF0E022116129
:100C300007E04FF0E021096921F004014FF0E022C4
:100C4000116170477047000010B51548006840F406
:100C50007000134908601348006840F00100114912
:100C6000086000200F49083108600E4800680E49EE
:100C700008400C4908600D48091D0860081F0068FD
:100C800020F48020091F0860002006490C3108600C
:100C9000FFF74EFF4FF0006001498039086010BD3A
:100CA00088ED00E000380240FFFFF6FE103000241F
:100CB00010B52DED0C8B6E4890ED820AF0EE000A17
:100CC00020EE200ADFED6B0A20EE200ADFED6A0A33
:100CD00080EE201A11EE104A204602F0F7FA41EC9D
:100CE0001D0BB0EE4D0AF0EE6D0A01F00DF8B0EEFE
:100CF00040BAF0EE60BA5E4890ED120A10EE101A9B
:100D0000084602F0E3FA41EC1C0B53EC1B2B02F0FB
:100D1000B3F841EC190B564890ED820AF0EE000A48
:100D200020EE200ADFED530A20EE200ADFED520A02
:100D300080EE201A11EE104A204602F0C7FA41EC6C
:100D40001D0BB0EE4D0AF0EE6D0A00F06DFFB0EE37
:100D500040BAF0EE60BA464890ED110A10EE101A53
:100D6000084602F0B3FA41EC1C0B53EC1B2B02F0CB
:100D700083F841EC1A0B53EC192B01F09FFD41EC69
:100D8000180B01F069FD3A498863084690ED820A24
:100D9000F0EE000A20EE200ADFED360A20EE200AEF
:100DA000DFED350A80EE201A11EE104A204602F0DF
:100DB0008DFA41EC1D0BB0EE4D0AF0EE6D0A00F01D
:100DC000A3FFB0EE40BAF0EE60BA294890ED110AE8
:100DD00010EE101A084602F079FA41EC1C0B53ECA5
:100DE0001B2B02F049F841EC180B214890ED820AC8
:100DF000F0EE000A20EE200ADFED1E0A20EE200AA7
:100E0000DFED1D0A80EE201A11EE104A204602F096
:100E10005DFA41EC1D0BB0EE4D0AF0EE6D0A00F0EC
:100E200003FFB0EE40BAF0EE60BA114890ED120A3E
:100E300010EE101A084602F049FA41EC1C0B53EC74
:100E40001B2B02F019F841EC1A0B53EC182B02F093
:100E500053F941EC190B01F0FFFC0549C863084642
:100E600090ED130A80ED100ABDEC0C8B10BD000054
:100E700050000020D80F49400000B443F0B50C46A4
:100E8000154600210022068C4FF6FE773E40068470
:100E9000018B028C4FF60C7631407E1C06EA03165D
:100EA0002E4331434FF6F576324044F0010632438B
:100EB00001830284F0BDF0B50C46154600210022E6
:100EC0000026078C4FF6EF7C07EA0C070784018B9E
:100ED000028C4FF6FF7707EA041640F6FF473940C9
:100EE0004FF6FF7707EA033739434FF6FF7707EAF4
:100EF000052739434FF65F773A4046F010073A43EB
:100F000001830284F0BDF0B50C4615460021002295
:100F10000026078C4FF6FF6C07EA0C070784818BCD
:100F2000028C4FF6FF7707EA04264FF60C7739401C
:100F30004FF6FF7707EA03172F4339434FF2FF5766
:100F40003A4046F480773A4381830284F0BDF0B59D
:100F50000C461546002100220026078C4EF6FF7C29
:100F600007EA0C070784818B028C4FF6FF7707EAAC
:100F7000043640F6FF4739404FF6FF7707EA05276A
:100F800039434FF6FF7707EA0337394345F6FF77D2
:100F90003A4046F480573A4381830284F0BD000012
:100FA0007FB505460C4601210802FFF759FC029562
:100FB000ADF804400020ADF80600ADF80C0001A922
:100FC0000D4800F0CFF9012211460B4800F092F9CC
:100FD0000121094800F019F92D208DF800000120A9
:100FE0008DF8010003208DF8020001208DF8030028
:100FF0006846FFF7DDFB7FBD0020004000B589B0EB
:1010000001210420FFF71CFC01210220FFF728FC2E
:10101000022206213048FFF723FB022207212E4837
:10102000FFF71EFBC020079002208DF82000032050
:101030008DF8210000208DF8230007A92648FFF72E
:10104000C7FA0020ADF810004FF6FF7005900020A1
:10105000ADF81800ADF8120004A9204800F082F99C
:1010600002231A4603211D4800F0DBF80020ADF8EA
:1010700004000220ADF8080001A9184800F003F9A7
:101080000420ADF804000220ADF8080001A91348BF
:1010900000F0F9F81D208DF8000002208DF8010005
:1010A00001208DF802008DF803006846FFF780FBF1
:1010B00001210A4800F0A3F801221146074800F078
:1010C00019F947F23051054800F01DF90121034894
:1010D00000F09BF809B000BD000802400004004089
:1010E00000B589B001210220FFF7AAFB01210420ED
:1010F000FFF7B6FB022206213048FFF7B1FA0222C1
:1011000007212E48FFF7ACFAC020079002208DF887
:10111000200003208DF8210000208DF8230007A96E
:101120002648FFF755FA0020ADF810004FF6FF7083
:1011300005900020ADF81800ADF8120004A9204871
:1011400000F010F902231A4603211D4800F069F847
:101150000020ADF804000120ADF8080001A91848EE
:1011600000F091F80420ADF804000120ADF808006B
:1011700001A9134800F087F81E208DF80000022016
:101180008DF8010001208DF802008DF803006846FB
:10119000FFF70EFB01210A4800F031F80122114649
:1011A000074800F0A7F847F23051054800F0ABF8C7
:1011B0000121034800F029F809B000BD00040240F5
:1011C0000008004010B50121064800F04BF8012846
:1011D00003D1FFF73CF9FFF749F90121014800F07D
:1011E00011F810BD0020004010B5FFF707FFFFF712
:1011F00077FF42F2CF016320FFF7D2FE10BDCA4352
:1012000002827047CA430282704721B1028842F0CD
:101210000102028004E002884FF6FE731A40028049
:101220007047F0B50C4615461E46002100220023EB
:101230000189028B038C4FF6F877394021434FF632
:10124000FC473A4040F201173A434FF6DD773B4006
:101250004FF6FF7707EA06172F433B4301810283CE
:101260000384F0BD30B50246002000230024158A17
:1012700005EA0103958905EA010413B10CB10120C7
:1012800000E0002030BD70B505460C46208850B9FE
:101290002389A28861882846FFF7F0FDE188284667
:1012A00000F033F825E0208804280AD12389A28899
:1012B00061882846FFF7FFFDE188284600F02EF8F8
:1012C00017E0208808280AD12389A2886188284647
:1012D000FFF719FEE188284600F02DF809E0238980
:1012E000A28861882846FFF732FEE188284600F090
:1012F0002BF870BD1AB183890B43838102E0838987
:101300008B438381704741627047028B4FF6F373C2
:101310001A400283028B0A4302837047028B4FF20A
:10132000FF331A400283028B4FF6FF7303EA012357
:101330001A4302837047828B4FF6F3731A408283FD
:10134000828B0A4382837047828B4FF2FF331A40AD
:101350008283828B4FF6FF7303EA01231A43828351
:101360007047000000220288184B98420ED0184B9C
:1013700098420BD0B0F1804F08D0164B984205D060
:10138000154B984202D0154B984204D14FF68F73FB
:101390001A404B881A43124B984207D0114B98427F
:1013A00004D04FF6FF431A400B891A4302804B6862
:1013B000C3620B880385054B984202D0044B9842C8
:1013C00001D18B7A0386012383827047000001409C
:1013D000000401400004004000080040000C0040F0
:1013E000001000400014004010B540F225513E4866
:1013F00000F03DFB002871D03B4800F0F1FBC4B287
:101400003A480078052868D2DFE800F00316213258
:101410004B00682C0FD13648006808B9012000E065
:10142000002033490860012030490870002031490C
:1014300008803149086050E02E48008820442D493A
:1014400008802E48048002202849087045E0FE2CC0
:1014500008D10320254908702648008820442549E2
:10146000088004E00020214908702249088034E007
:101470002048008820441F4908801F4801680068F0
:10148000401C1D4A10601E4844541C48B0F900001E
:10149000C01E11460968884202DC04201349087006
:1014A0001BE014490888C11700EB11610912A0EB79
:1014B0000121104A118010460088844207D101F0B2
:1014C00057F900200B4908800849087004E0002003
:1014D000064908700749088000BF00BF40F2255147
:1014E000014800F09CFA10BD004C00402100002093
:1014F0008082404222000020240000202A00002098
:10150000EC02002000B587B001210420FFF798F914
:101510000121C804FFF7A4F908220A212448FFF793
:101520009FF808220B212248FFF79AF84FF44060F9
:10153000019002208DF808008DF8090000208DF838
:101540000A0001208DF80B0001A91948FFF740F8A7
:1015500034208DF8000000208DF8010001208DF866
:1015600002008DF803006846FFF722F94FF4164099
:1015700003900020ADF81000ADF81200ADF8140093
:10158000ADF818000C20ADF8160003A9094800F0CA
:10159000BDFA012240F22551064800F092FA0121DD
:1015A000044800F04BFA01F027F807B000BD000036
:1015B00000080240004C004010B5044600BF402126
:1015C000044800F047FA0028F9D02146014800F00D
:1015D0000CFB10BD004C004030B52DED048B81B0EC
:1015E0000020009040F225518E4800F040FA00287B
:1015F0007ED08C4800F0F4FA8B4908708B48007854
:1016000020B101280DD002280AD116E086480078C2
:10161000AA2805D100208649086001208349087066
:10162000F5E081480078552803D102207F490870F1
:1016300002E000207D490870E9E07B4800787D49A0
:101640007B4A126888547A480068401C78490860D0
:101650000846006817287DD1002074490870754A33
:101660004FF6FF74744D2C8000BF1DE012F8014B43
:10167000714D2D886C40704D2C80002111E06E4C16
:10168000247804F001036C4C248864106A4D2C808B
:1016900033B12C4624884AF201056C40664D2C80FB
:1016A000491C0829EBDB401C1528DFDB634C624D2D
:1016B0002D882580204600785E49497D8842CAD120
:1016C000204640785B49897D8842C4D15948407C96
:1016D0008DF800005748807C8DF801005548C07C8B
:1016E0008DF802005348007D8DF80300544800E057
:1016F0008EE000990160006801F0E8FD41EC190BF3
:10170000B0EE490AF0EE690A00F0F2FAB0EE408A53
:10171000F0EE608A9FED4B0B53EC102B51EC180B45
:1017200001F0A8FC1AD34648006801F0CFFD41EC57
:10173000190BB0EE490AF0EE690A00F0D9FAB0EEE2
:10174000408AF0EE608A9FED410B53EC102B51EC78
:10175000180B00E059E001F053FB00D256E03D4881
:10176000006810BB3648006801F0B0FD3A4AC2E993
:10177000180138480068401C36490860A2F1B800DA
:1017800090ED461BB0EE410AF0EE610A9FED331B6F
:1017900053EC112B51EC100B01F09CFA0DD12D489C
:1017A0000068401E2B49086007E02548006801F0EA
:1017B0008DFD294A083AC2E918012A480068401CF0
:1017C0002849086028480068401C274908600846E6
:1017D00000680F280AD12548006808B9012000E0F8
:1017E00000202249086000201F4908601D48006849
:1017F00019280AD11D48006808B9012000E000201E
:101800001A49086000201749086000BF00BF00BFE8
:1018100040F22551034800F002F901B0BDEC048B01
:1018200030BD000000100140140000201E00002008
:101830001800002088020020160000201C00002054
:10184000100000200000000000807640000000E052
:10185000E2361A3F0C0000200801002000000000C2
:10186000000000000400002008000020A082414287
:1018700000B587B001210846FEF7E2FF01211020E4
:10188000FEF7FEFF07220A212748FEF7E9FE07229E
:101890000B212548FEF7E4FE4FF440600190022042
:1018A0008DF8080003208DF8090000208DF80A004B
:1018B0008DF80B0001A91C48FEF78AFE4FF4E130B9
:1018C00003900020ADF81000ADF81200ADF8140040
:1018D000ADF818000C20ADF8160003A9134800F06D
:1018E00015F9012240F22551104800F0EAF80121D3
:1018F0000E4800F0A3F825208DF8000000208DF898
:1019000001008DF8020001208DF803006846FEF703
:101910004FFF0748006808B9012000E00020044993
:10192000086007B000BD0000000002400010014048
:101930008082404200B587B001210820FEF780FF79
:1019400001214804FEF78CFF072205212548FEF7F8
:1019500087FE072206212348FEF782FE60200190C1
:1019600002208DF808008DF8090000208DF80A008B
:1019700001208DF80B0001A91A48FEF729FE4FF44B
:10198000E13003900020ADF81000ADF81200ADF882
:101990001400ADF818000C20ADF8160003A9124889
:1019A00000F0B4F80121104800F048F840210E483A
:1019B00000F02CF8012240F225510B4800F081F88C
:1019C00026208DF8000001208DF8010000208DF800
:1019D000020001208DF803006846FEF7E9FE07B01B
:1019E00000BD0000000C02400044004010B5044659
:1019F00000BF4021044800F02DF80028F9D021460E
:101A0000014800F0F2F810BD0044004001F40072FB
:101A1000B2F5007F00D100BFCA430280704710B505
:101A20000022002340F66A14A14200D100BF0A122E
:101A300001249440A3B2DC43048010BD21B182890B
:101A400042F40052828104E082894DF6FF731A400D
:101A50008281704702460020B1F5007F00D100BFAF
:101A600013880B400BB1012000E00020704770B5D7
:101A70000246002400230025002040F66A16B142E9
:101A800000D100BFC1F3421501F01F03012606FA81
:101A900003F3012D02D19689334006E0022D02D1D5
:101AA000168A334001E0968A33400C12012606FA6A
:101AB00004F41688344013B10CB1012000E000207A
:101AC00070BDF0B50346002400260025002040F636
:101AD0006A17B94200D100BF1846C1F3421401F0A1
:101AE0001F06012707FA06F5012C01D10C3004E08E
:101AF000022C01D1103000E014301AB107682F43D6
:101B0000076002E00768AF430760F0BD2DE9FF47BB
:101B100005460E460024A14600BFA046B08900B18C
:101B200000BF2C8A24F44054F08804432C82AC89F2
:101B300041F20C608443B0883189084371890843BD
:101B40000443AC81AC8A24F44074B0890443AC8271
:101B50006846FEF7A5FE2048854202D01F48854210
:101B600002D1DDF80C9001E0DDF80890A88900F4BE
:101B7000004040B109EBC90000EB09103168490091
:101B8000B0FBF1F707E009EBC90000EB0910316881
:101B90008900B0FBF1F76420B7FBF0F004012009E5
:101BA000642101FB1078A88900F4004040B1322084
:101BB00000EBC800B0FBF1F000F00700044308E0C0
:101BC000322000EB08106421B0FBF1F000F00F00B0
:101BD00004432C81BDE8FF87001001400014014040
:101BE00001468888C0F308007047C1F3080282806C
:101BF000704700BFFEE703B401984100009850EA27
:101C0000C12018BF04204A0D18BF40F0010040F267
:101C1000FF72B2EB515F08BF40F00200012808BF1D
:101C2000052002B07047000010B52F499FED2C1B16
:101C30002DED020B84B0059820F000408842D8BFFB
:101C40009DED040B2DDD2949884209D1049840B946
:101C50004FF00100FEF710FB00F0AEFC06B010BD27
:101C600005DB9DED040B00F09BFC06B010BD684643
:101C70009DED040B00F0ACF810F0030004BF9DEDE7
:101C8000021B9DED000B0CD001280ED09DED021B18
:101C90009DED000B022817D0012000F0E9FB06B0F3
:101CA00010BD00F0B1FA06B010BD9DED021B9DED18
:101CB000000B012000F0DCFB51EC100B00F0C0FD2C
:101CC00006B041EC100B10BD00F09EFA51EC100B69
:101CD00000F0B6FD06B041EC100B10BD0000000096
:101CE0000000000000000000FB21E93F0000F07F41
:101CF0002DED020B019820F0004001909DED000BAE
:101D000002B070470000000010B52F499FED2C1B5A
:101D10002DED020B84B0059820F000408842DCBF16
:101D200000209DED040B32DD2849884209D104983A
:101D300040B94FF00100FEF79FFA00F03DFC06B0FD
:101D400010BD05DB9DED040B00F02AFC06B010BDB4
:101D500068469DED040B00F03BF810F0030011D035
:101D6000012818D09DED021B9DED000B02281AD012
:101D700000F04AFA51EC100B00F062FD06B041ECA5
:101D8000100B10BD9DED021B9DED000B012000F01E
:101D90006FFB06B010BD9DED021B9DED000B00F02A
:101DA00033FA06B010BD012000F062FB51EC100BBD
:101DB00000F046FD06B041EC100B10BD0000000025
:101DC0000000000000000000FB21E93F0000F07F60
:101DD0002DE9F14F04462DED020B2DED088B8AB055
:101DE0009FEDE70B80ED020B139EE74826F00045C0
:101DF00085420ADC9DED120B002084ED000B0AB039
:101E0000BDEC088B03B0BDE8F08FE0489FEDE0AB80
:101E10009FEDE1BBA84247DDE14F9FEDE39B9FEDC6
:101E2000E48B9DED120B53EC1A2B51EC100B002E92
:101E30001CDD01F061F941EC100BBD4208D053EC00
:101E40001B2B51EC100B01F057F9C4E900010BE01A
:101E500053EC192B51EC100B01F04EF953EC182BED
:101E600001F04AF9C4E900010120C8E700F026FDAD
:101E700041EC100BBD4208D053EC1B2B51EC100B66
:101E800000F01CFDC4E900010BE053EC192B51ECF0
:101E9000100B00F013FD53EC182B00F00FFDC4E9FC
:101EA00000014FF0FF30AAE7C348A84279DB9DED5F
:101EB000120B51EC100B00F04FFC41EC180B9FED96
:101EC000C00B53EC102B00F0D7FF9FEDBF1B53EC62
:101ED000112B00F0F3FC00F039FF074600F065FF1E
:101EE00041EC190B53EC1A2B00F0C6FF53EC182BE6
:101EF00001F0F6F841EC180B53EC1B2B51EC190BCD
:101F000000F0BAFFDFF8C8A241EC100B4FEA1558F9
:101F10000125FA4453EC102B51EC180B01F0ECF8AE
:101F2000032DC4E900013DD0C1F30A5005EB451172
:101F3000A8EB00001139814234DA0AEB051BB0EE40
:101F400048AA9BED000BF0EE68AA53EC102B51EC65
:101F5000190B00F091FF41EC1B0B51EC1A0B53ECE9
:101F60001B2B01F0C9F841EC180B51EC1A0B53EC88
:101F7000182B01F0C1F853EC1B2B01F0BDF89BEDC1
:101F8000020B41EC1A0B53EC102B51EC190B00F027
:101F900073FF53EC1A2B01F0AFF841EC100B6D1CE2
:101FA000B8E70EE0002EA8BF3846BFF628AF94ED84
:101FB000000B51EC100B00F043FCC4E90001784227
:101FC0001DE7C6F3130040F4801EC6F30A50A0F2CA
:101FD000F530471100F01F05C5F12000DDF848B0CD
:101FE00008900020069007900520EC467949002DC6
:101FF00007EB0002794408BF51F8221009D051F8CC
:10200000223001EB8201AB404A68089922FA01F1C3
:102010001943A1FB0E26A1FB0B131A449A4234BFAD
:102020000123002303EB06080CEB8003D3E901A690
:102030000E448E4234BF0121002192448A4411B1E2
:10204000924502D903E0924501D2012100E000212E
:10205000C3E901A641444CF82010011EA0F1010083
:10206000C4DC029800F10050850F0298DDE9036797
:102070008000DDF8148000F098FE41EC1A0B304629
:1020800000F0AAFE9FED541B53EC112B00F0F4FE60
:1020900041EC1B0B384600F09FFE9FED511B53ECAB
:1020A000112B00F0E9FE41EC180B404600F094FEC5
:1020B0009FED4D1B53EC112B00F0DEFE41EC190B94
:1020C00051EC180B53EC192B00F0F8FB53EC1B2BC5
:1020D00000F0F4FB53EC1A2B00F0F0FBCDE9080103
:1020E000002008909DED080B53EC1A2B51EC100BBF
:1020F00001F002F853EC1B2B00F0FEFF53EC182B01
:1021000000F0FAFF53EC192B00F0EAFF9FED381BAB
:1021100053EC112B00F0B0FE9FED370B41EC180B88
:1021200053EC102B9DED080B51EC100B00F0A4FEAE
:1021300053EC182B00F0C2FB9FED310B41EC180B58
:1021400053EC102B9DED080B51EC100B00F094FE9E
:1021500053EC182B00F0B2FB41EC100B139810F06D
:10216000004F06D06D4251EC100B00F069FB41ECC2
:10217000100B284684ED000B41E600000000000033
:102180000000000000000000FB21E93F7CD9024074
:1021900000004054FB21F93F3163621A61B4D03D25
:1021A000FB21F93F000000000000601A61B4D03D3F
:1021B0007370032E8A19A33BFB21394100000000F4
:1021C00083C8C96D305FE43F000000000000E03FBD
:1021D000E214000030140000000000000000103E77
:1021E000000000000000103C000000000000103A59
:1021F000182D4454FB21F93D3326A611460B113C02
:1022000000000054FB21F93D10B52DED040B2DED20
:10221000088B82B0B0EE419AF0EE619A0B9820F0F4
:1022200000449FED4BABB4F1795F11DA9DED0A0BE1
:1022300051EC100B00F08AFD002801BFB0EE4A0AF5
:10224000F0EE6A0A02B0BDEC088B04BF04B010BD0A
:102250009DED0A0B53EC102B51EC100B00F00CFE13
:1022600041EC180B3C480621B0EE480AF0EE680A33
:10227000784400F081F853EC182B51EC100B00F06F
:10228000FBFD9DED0A0B41EC1B0B53EC192B51ECA4
:10229000100B00F0F1FD41EC190B53EC1B2B51EC32
:1022A000180B00F0E9FD53EC192B00F025FF9FED12
:1022B0002C0B41EC190B53EC102B51EC180B00F0CC
:1022C000DBFD41EC100B2848844210DA53EC192B4B
:1022D00051EC100B00F010FF53EC1A2B00F000FF34
:1022E00041EC100B02B0BDEC088B04B010BD1F48D0
:1022F000A042BCBF9FED1E1B8DED001B06DBA4F5AD
:1023000000100190002000909DED001B51EC100B7F
:1023100053EC112B00F0F0FE9DED000B41EC180B7F
:1023200053EC102B51EC1A0B00F0E6FE41EC1A0BAB
:1023300053EC192B51EC180B00F0DEFE53EC1A2B6A
:1023400000F0CEFE41EC100BCCE7000000000000D6
:10235000000000000000F03F5411000000000000E9
:10236000000000000000E03F3333D33F0000E93FAE
:10237000000000000000D23F70B504462DED028B36
:102380004D1E00EBC500B0EE408AF0EE608A90ED85
:10239000000B35F0060017D053EC182B51EC100B46
:1023A00000F06AFD41EC100B6D1E04EBC50090EDD2
:1023B000001B51EC100B53EC112B00F07FFA41EC99
:1023C000100B35F00600E7D1022D36D0042D1CD0BD
:1023D000062D1CBFBDEC028B70BD53EC182B51ECCD
:1023E000100B00F049FD94ED0A1B53EC112B00F08B
:1023F00065FA53EC182B00F03FFD94ED081B53ECED
:10240000112B00F05BFA41EC100B53EC182B51EC44
:10241000100B00F031FD94ED061B53EC112B00F076
:102420004DFA53EC182B00F027FD94ED040B53EC00
:10243000102B00F043FA41EC100B53EC182B51EC2D
:10244000100B00F019FD94ED021B53EC112B00F062
:1024500035FA53EC182B00F00FFD94ED001B53ECF4
:10246000112B00F02BFABDEC028B41EC100B70BD70
:1024700031B504462DED040B2DED0A8BB0EE41BABB
:10248000F0EE61BA0B989DED0A0B20F00040B0F120
:10249000795F0DDA51EC100BFFF7ADFB042808BF94
:1024A00000F09AF89DED0A0BBDEC0A8B05B030BD2B
:1024B00053EC102B51EC100B00F0DEFC41EC180B30
:1024C0009DED0A0B53EC182B51EC100B00F0D4FCD3
:1024D00041EC190B2C48B0EE480AF0EE680A0521D1
:1024E0007844FFF749FF9FED2ACBB0EE40AAF0EE0B
:1024F00060AA9CB353EC1C2B51EC190B00F0BCFCF4
:1025000041EC1C0B53EC1A2B51EC190B00F0B4FCF2
:102510009FED210B41EC190B53EC102B51EC1B0BD5
:1025200000F0AAFC53EC192B00F0E6FD53EC182B3D
:1025300000F0A2FC53EC1B2B00F0DEFD53EC1C2B37
:1025400000F0DAFD9DED0A1B53EC112B00F0C8FDE5
:10255000BDEC0A8B05B041EC100B30BDFFE753EC2E
:102560001A2B51EC180B00F087FC53EC1C2B00F0DD
:10257000A5F953EC192B00F07FFC9DED0A1B53ECE1
:10258000112B00F09BF9E3E7DC0F000000000000D6
:10259000495555555555C5BF000000000000E03FA6
:1025A00010B553EC102B51EC100B00F087F941ECF7
:1025B000100B10BD000000009FED050B10B553EC93
:1025C000102B51EC100B00F02DFA41EC100B10BD4C
:1025D00000000000000000009FED050B10B553EC5B
:1025E000102B51EC100B00F047FC41EC100B10BD10
:1025F000000000000000001010B5002413E0601C73
:10260000C4B26820FEF7D8FF0420FEF7D5FF0020F3
:10261000FEF7D2FF2820FEF7CFFF2C20FEF7CCFFDD
:102620000A2000F04DF80448007808B9102CE6DBC9
:1026300000200149087010BD2000002010B504469C
:102640006FF00400FEF7EAFAE11704EB5171C1F3F1
:10265000C7010A4A1170A82094FBF0F008490870DD
:102660001046007800EB4001C1EBC0104FF6FF713F
:1026700001EAC0000349088010BD000001000020ED
:10268000000000200200002070B504464FF40770DF
:1026900094FBF0F0C6B24FF4077094FBF0F100FB2E
:1026A000114085B205E04FF4077000F02FF8701E5E
:1026B000C6B2002EF7D115B1284600F027F870BD3C
:1026C0000146114A12784A434FF0E0235A61002232
:1026D0009A611A46126942F001021A6100BF4FF076
:1026E000E022106900F001021AB100F48032002AE1
:1026F000F5D04FF0E022126922F001024FF0E02302
:102700001A6100229A617047010000200146114AB7
:1027100012884A434FF0E0235A6100229A611A4618
:10272000126942F001021A6100BF4FF0E022106905
:1027300000F001021AB100F48032002AF5D04FF007
:10274000E022126922F001024FF0E0231A61002218
:102750009A6170470200002082B0CDE9000121F0AB
:10276000004001909DED000B02B051EC100B704742
:102770002DE9F0412B48007884284AD12948C679B0
:10278000F01706EB10700011A6EB0010642210FB8E
:1027900002F0244A92F808804FEAE87208EB1272BD
:1027A000121102EB820200EB42001E4A157AEA1770
:1027B00005EB12721211A5EB0212104400EE100A82
:1027C000B8EEC00A1748477AF81707EB10700011E7
:1027D00000EE900AF8EEE00A9FED131A00EE810A6F
:1027E0001048447AE01704EB10700011A4EB0010BD
:1027F00000EE900AF8EEE00A9FED0C1A00EE810A56
:1028000010EE101A084600F061FD094A02F5F07258
:1028100003C204480078A82802D1012005490870A5
:10282000BDE8F081EC020020CDCCCC3D0AD7233CA2
:102830005000002020000020FDF7F6FD00BFFEE75D
:1028400081F00041704780F00040704721F0004166
:10285000704720F00040704721F00042A2F1605222
:10286000B2F5801F01F0004328BFD2F17F6C0BD975
:102870005FEA001C43EAC20242EB507018BF704787
:1028800028BF20F001007047B2F5801FBCBF18467A
:1028900070474FEA410C1CF5001F02D2084600F0B9
:1028A0008BBD70B500F092FB00000089FFF7F6BF0A
:1028B0004FF00040A0F580007047000010B591EA8D
:1028C000030F48BF83F0004300F11E84841A71EBAC
:1028D000030C05D2121943EB0C03001B61EB0C0136
:1028E000DFF824E14FEA1154A4EB135C1EEA430F16
:1028F00018BF9EEA445F73D023EA0E03DCF1200E7A
:1029000021EA045143F4801332D322FA0CFE10EB77
:102910000E0023FA0CFE41EB0E01CCF1200E03FA5F
:102920000EFE10EB0E0051F10001B1F5801FCCF14D
:10293000200E32D201EB045112FA0EF2BDE8104023
:1029400058BF7047401C38BF5FEA420218BF70474B
:10295000002814BF20F0010041F100014FEA4103BB
:1029600013F5001F38BF7047A1F1C04100F07CBBD8
:10297000012A43EB0302ACF1200CDCF11F0E32BF45
:102980004FF0000E23FA0CF310EB030041EB04515F
:10299000B4EB115FD0D0A1EB045101F580114908CF
:1029A0005FEA300001EB04510ED350F1000038BF54
:1029B00012FA0EFE08D1BDE81040C9E7401C38BF2E
:1029C0005FEA4202CAD1C3E7BDE810404FEA4103C3
:1029D00013F5001F38BF7047A1F1C04100F044BBA0
:1029E0009EEA445F08D011EA5E0FBDE8104004BFC4
:1029F00001F0004100207047BDE8104070B500F0C4
:102A0000E5FA00BF64FBBE3E0000E0FF491058BF7E
:102A1000C1F140415B1058BFC3F140438B42EFF31B
:102A2000008070472DE9C04130B4DFF8A0C23CEA15
:102A3000111418BF3CEA131400F0EC8081EA03057E
:102A40001CEA111444EAD57418BF1CEA131500F0EF
:102A5000C780A4EB05044FF0004545EAC12145EAD3
:102A6000C32341EA505143EA525304F17F7499421F
:102A700004F500344FEAC0204FEAC22208BF90425A
:102A800000F09C804FEA13650FF24016765D4FEA26
:102A9000134506FB05F7C7F1807706FB07F74FEAFA
:102AA000D737A7FB03687642C8F58038A7FB06CE68
:102AB00038BFA8F1010807FB08E64FF0000EA6FB9F
:102AC000028CE6FB03CEDCF1000CCEF1004E38BFE9
:102AD000AEF1010EA6FB0C584FF000074FF00005B9
:102AE000E6FB0E87A1FB08C6A0FB07CE16EB0E0681
:102AF00045F10005E1FB076515F1E04E7EBFA4F549
:102B000080345FEA46066D4116F1800745F1000505
:102B10004FEA17274FEA066647EA0567A6F1DE4641
:102B2000B6F1805F4FEA15251FD9384624F0010C15
:102B300005EBC471BCF1FE6F01EB0C1102D8F0BCC7
:102B4000BDE8008124425CBF01F5801E9EEAC47F7F
:102B500002D4F0BCBDE80081244238D4F0BCA1F11D
:102B6000C041BDE8004100F07FBA4FEAD22242EAFC
:102B700043524FEAD323A7FB02864FEAD02040EA14
:102B8000415007FB03661EEA0E0F4FEAD12105FBF9
:102B9000026658BFA6EB0056B6EB00564FEA520E3F
:102BA0004EEAC37E18EB0E0E56EB530EBDD518EB56
:102BB00002085E417F1C55F10005B6E74FF4801511
:102BC0004FF000074FF000064FF00008ADE7F0BCF3
:102BD0004FF0000001F1C04101F00041BDE800816B
:102BE00011EA0C1F0CEA131500D00CE013EA0C1FBD
:102BF00000F025804FF00000F0BC81EA030101F0F5
:102C00000041BDE80081F0BCBDE8004181EA03015C
:102C100000F02ABAF0BCBDE8004170B500F0D6F96A
:102C2000097EFC3E00F007B881EA03014FF0000086
:102C300001F00041704781EA030100F015BAF0BCD1
:102C4000BDE800414FF0000021497047FFFDFBF94E
:102C5000F7F5F4F2F0EEEDEBE9E8E6E4E3E1E0DECF
:102C6000DDDBDAD8D7D5D4D3D1D0CFCDCCCBCAC841
:102C7000C7C6C5C4C2C1C0BFBEBDBCBBBAB9B8B768
:102C8000B6B5B4B3B2B1B0AFAEADACABAAA9A8A85B
:102C9000A7A6A5A4A3A3A2A1A09F9F9E9D9C9C9B29
:102CA0009A999998979796959594939392919190D4
:102CB0008F8F8E8E8D8C8C8B8B8A89898888878765
:102CC0008685858484838382828181800000FF07DA
:102CD0000000F87F51EA030C17D41CF5801F58BF81
:102CE000BCF5801F00F10680994218BF704708BFED
:102CF0009042704707D711F5801F58BF13F5801F0A
:102D000019D499427047894270471CF5801F08D535
:102D1000BCF5801FF7D58B4218BF704708BF8242B1
:102D200070474FF4001C1CEB410F38BF1CEB430FE6
:102D300001D28B42704770B500F048F992244900E7
:102D40004FF000514FF08053FFF760BE4FEA410350
:102D50004FEA5353A3F58063D3F11E03C8BFD3F1E9
:102D6000210C0CDD4FF0004242EAC12242EA5052EF
:102D700032FA03FC8CEAE17CACEBE1707047102B7B
:102D8000C4BF0020704703F5787CBCF1FF3F04D03E
:102D90006FF0004282EA2100704770B500F016F92A
:102DA0004992248000207047F2E710F0004248BFAB
:102DB0004042B0FA80F310FA03F10AD0C3F11D03C8
:102DC00003F580634FEA415002EB035202EBD1213D
:102DD00070474FF000007047B0FA80F310FA03F12B
:102DE0000AD0C3F11D0303F580634FEA41504FEA57
:102DF000035202EBD12170474FF0000070470000F2
:102E000051EA030C17D41CF5801F58BFBCF5801F76
:102E100000F10680994218BF704708BF9042704782
:102E200007D711F5801F58BF13F5801F19D4994299
:102E30007047894270471CF5801F08D5BCF5801F7C
:102E4000F7D58B4218BF704708BF824270474FF4D6
:102E5000001C1CEB410F38BF1CEB430F01D28B420F
:102E6000704770B500F0B2F8922449004FF000515D
:102E70004FF08053FFF7CABDDFF848C170B51CEAB8
:102E8000111E1EBF1CEA13159EEA0C0F95EA0C0FCB
:102E900000F06F8081EA030423EA4C134EEAD47EEB
:102EA00021EA4C1141F4801143F48013AE44A1FB9C
:102EB000024CA0FB0365AEF17F7E361955EB0C0585
:102EC000A1FB034C4CF10003A0FB021C16EB0C060B
:102ED000654153F10003094218BF46F0010613F49F
:102EE000007F0BD14FEA03314FEA0530340341EA4A
:102EF000155140EA16506FF003020AE04FEAC32171
:102F00004FEAC520F40241EA555140EA56506FF0AD
:102F1000020202EB2E4201EB025585EACE710AD085
:102F20005FEA440C18BF24F0004450F1000041F166
:102F3000000120EAD47040F2FE7C624500D270BDF0
:102F4000A84214BF4FF080444FF04044002E08BF09
:102F50000024BEF1806FA8BFA1F1C041BDE8704060
:102F600080F282804FF0000001F1C04101F0004189
:102F700070479EEA0C0F0CEA131518BF95EA0C0F68
:102F800006D04FF0000081EA030E0EF0004170BD44
:102F900000F01CF88900013E00F007B800F009B805
:102FA0004FEA430C5FEA5C5C08D081EA030100F061
:102FB0005BB84FEA410C5FEA5C5CF6D14FF0000071
:102FC000014970470000FF070000F87F0EF1020E74
:102FD0002EF0030E5EF8046B364205D4012A43EB53
:102FE000030515F5001F12D8012841EB010C1CF553
:102FF000001F0CD80ED14FEAD17C15F5001F0CEB49
:103000004C0C0CF1020C08BF4CEBD37C04E04FF0ED
:10301000080C01E04FEAD37C0CEB4C0526FA05F6D0
:1030200006F00706B6F1040C06D20EEB860CBDE8DE
:1030300070404CF0010C6047DFE80CF0090B020215
:103040004FF000414FF00000A1F5002170BD19467E
:103050001046012851EB010418BFD4F5001484BFB9
:10306000002001F0004170BD0808A0F500114FEAF2
:103070003101704753EA010C17D41CF5801F58BF6B
:10308000BCF5801F00F106808B4218BF704708BF57
:103090008242704707D713F5801F58BF11F5801F74
:1030A00019D48B4270479B4270471CF5801F08D58E
:1030B000BCF5801FF7D5994218BF704708BF9042F2
:1030C00070474FF4001C1CEB430F38BF1CEB410F43
:1030D00001D2994270470FB40CBC03BCFFF7C1BECC
:1030E00091EA030F10B581F000413FF5EFAB83F09B
:1030F000004300F009B8000010B591EA030F48BF83
:1031000083F000433FF5E2AB841A71EB030C07D266
:1031100012198CF0004C43EB0C03001B61EB0C010B
:10312000DFF8A4E14FEA1154A4EB135C1EEA430F4D
:1031300018BF9EEA445F00F0B08023EA6E0352425B
:1031400021EA0451C3EB6E0338BF5B1EDCF1200E95
:1031500025D322FA0CFE10EB0E0043FA0CFE41EBD5
:103160000E01CCF1200E03FA0EFE10EB0E0051F111
:103170000001CCF1200E29D412FA0EF201EB045119
:10318000BDE8104058BF7047401C1CBFB2F1004F53
:10319000704700280CBF491C20F00100704712EB5B
:1031A000020E43EB030218BF4FF0010E4EEA42023B
:1031B000ACF1200CDCF11E0E54D943FA0CFE10EBDE
:1031C0000E0051F1FF31CCF11E0ED5D50EF1010EDE
:1031D00012FA0EFE404141EB010101EB445C5FEA53
:1031E0005C5C10D910EBDE7001EB045138BFBEF10E
:1031F000004FBDE8104018BF704700280CBF491CA5
:1032000020F00100704730D24FEAD42C11F50011A4
:1032100024F400641BD0B1FA81F20B3AA41AA41E64
:10322000D2F12003914030FA03F31943904001EBAF
:10323000CC71002C01EB0451BDE81040A8BF7047D1
:1032400001F1C0414FF0000001F000417047B0FAB9
:1032500080F310FA03F100D110BDE41A173C4805C1
:10326000C90AE4E701EB045110BD491001EB045118
:10327000BDE810404FEA300002E04FF00001704717
:103280004A0008BF0042F8D0B2F5001F28BF7047BF
:1032900001F000414FF0000070479EEA445F07D004
:1032A00011EA5E0FBDE8104004BF00210020704706
:1032B000BDE8104070B5FFF789FE00BF40DFF63E65
:1032C00083F00041104670470000E0FF43004FEAE2
:1032D000D30C4FEA3C0C43401FBF40070CF1605138
:1032E00013F0FE4F70471CF0006F03D100200CF06C
:1032F000004170470CF0004343EA507010B540EABB
:10330000CC0000F00EF800BF000000924FEA000170
:10331000FFF7AABE4FF000414FF00000A1F50021D9
:1033200070470EF1020E2EF0030E5EF8044B24429D
:1033300004D44FEA4102B2F17F4F11D84FEA400363
:10334000B3F17F4F0CD80ED14FEAD07CB2F17F4F52
:103350000CEB4C0C0CF1020C08BF4CEBD17C04E0E4
:103360004FF0080C01E04FEAD17C0CEB4C0324FA3F
:1033700003F404F00704B4F1040C06D20EEB840C41
:10338000BDE810404CF0010C6047DFE80CF0070886
:1033900002024FF00040A0F5800010BD0846420038
:1033A00018BFD2F1807288BF00F0004010BD4FF00E
:1033B0004070E1EE100A7047FF2141EAD050C0058D
:1033C00070470000000000004C5555555555A53F6D
:1033D0007751C1166CC156BF9015CB19A001FA3EAA
:1033E000AD529C804F7E92BEC4B1B4BD9EEE213ED4
:1033F000D43888BEE9FAA8BD00004054FB21F93F4B
:103400003163621A61B4D03D0000601A61B4D03DEE
:103410007370032E8A19A33B0000002E8A19A33B68
:10342000C14920259A837B3900000000000000007C
:103430006E83F9A22915444ED15727FCC0DD34F51F
:10344000999562DB4190433CAB6351FE61C5BBDEA5
:103450003A6E24B7E0D24D42EA2E49061C92D109B9
:103460001CEB1DFE3EA729B1F53582E88444BB2E36
:1034700026709CE9417E5FB439D69139F439538383
:103480008B5F849C3B28F9BDFF97F81F0F9805DEE2
:103490008B112FEF1F6D0A5ACF7E366DB709CB27E0
:1034A000663F464F2DEA5F9EC7BA27757BF1E5EB75
:1034B000F739073DEA92528AB15FFB6B085D8D1FB9
:1034C000A6F810111111813FD561C119A0012ABFC1
:1034D0007DFEB157E31DC73EEB9C2B8AE6E55ABE45
:1034E0007CD5CF5A3AD9E53D0835000800000020C8
:1034F00050000000C40100085835000850000020AA
:1035000038090000E0010008000000000000000091
:1035100000000000000000000000000000000000AB
:10352000000000000000000000000000000000009B
:103530000000000000000000010203040102030477
:10354000060708090000000000000000000000005D
:08355000000000000000000073
:040000050800018965
:00000001FF
